{
  "contractName": "Verifier",
  "abi": [
    {
      "inputs": [],
      "name": "ProofInvalid",
      "type": "error"
    },
    {
      "inputs": [],
      "name": "PublicInputNotInField",
      "type": "error"
    },
    {
      "inputs": [
        {
          "internalType": "uint256[8]",
          "name": "proof",
          "type": "uint256[8]"
        }
      ],
      "name": "compressProof",
      "outputs": [
        {
          "internalType": "uint256[4]",
          "name": "compressed",
          "type": "uint256[4]"
        }
      ],
      "stateMutability": "view",
      "type": "function"
    },
    {
      "inputs": [
        {
          "internalType": "uint256[4]",
          "name": "compressedProof",
          "type": "uint256[4]"
        },
        {
          "internalType": "uint256[6]",
          "name": "input",
          "type": "uint256[6]"
        }
      ],
      "name": "verifyCompressedProof",
      "outputs": [],
      "stateMutability": "view",
      "type": "function"
    },
    {
      "inputs": [
        {
          "internalType": "uint256[8]",
          "name": "proof",
          "type": "uint256[8]"
        },
        {
          "internalType": "uint256[6]",
          "name": "input",
          "type": "uint256[6]"
        }
      ],
      "name": "verifyProof",
      "outputs": [],
      "stateMutability": "view",
      "type": "function"
    }
  ],
  "bytecode": "0x608060405234801561001057600080fd5b5061319c806100206000396000f3fe608060405234801561001057600080fd5b50600436106100415760003560e01c806344f63692146100465780639cb2865814610076578063f716918914610092575b600080fd5b610060600480360381019061005b9190612fcb565b6100ae565b60405161006d91906130b1565b60405180910390f35b610090600480360381019061008b9190612ff5565b6103d7565b005b6100ac60048036038101906100a79190612f8e565b610674565b005b6100b6612ecd565b61013c826000600881106100f3577f4e487b7100000000000000000000000000000000000000000000000000000000600052603260045260246000fd5b602002013583600160088110610132577f4e487b7100000000000000000000000000000000000000000000000000000000600052603260045260246000fd5b6020020135611087565b81600060048110610176577f4e487b7100000000000000000000000000000000000000000000000000000000600052603260045260246000fd5b602002018181525050610283826003600881106101bc577f4e487b7100000000000000000000000000000000000000000000000000000000600052603260045260246000fd5b6020020135836002600881106101fb577f4e487b7100000000000000000000000000000000000000000000000000000000600052603260045260246000fd5b60200201358460056008811061023a577f4e487b7100000000000000000000000000000000000000000000000000000000600052603260045260246000fd5b602002013585600460088110610279577f4e487b7100000000000000000000000000000000000000000000000000000000600052603260045260246000fd5b60200201356112af565b826002600481106102bd577f4e487b7100000000000000000000000000000000000000000000000000000000600052603260045260246000fd5b60200201836001600481106102fb577f4e487b7100000000000000000000000000000000000000000000000000000000600052603260045260246000fd5b602002018281525082815250505061038f82600660088110610346577f4e487b7100000000000000000000000000000000000000000000000000000000600052603260045260246000fd5b602002013583600760088110610385577f4e487b7100000000000000000000000000000000000000000000000000000000600052603260045260246000fd5b6020020135611087565b816003600481106103c9577f4e487b7100000000000000000000000000000000000000000000000000000000600052603260045260246000fd5b602002018181525050919050565b6000806103e383611b0d565b9150915060006040516101008682377f18ff5a9313f97784972fdae02ebc645f0ad1748b64d57ededf6e59e256625a856101008201527f2dbfd0119a6d6e1a1471005de2bb947f419ce6adf6682873f5ffc2a427d6fb1a6101208201527f02b8f89e7c3cf1f8de19343f856a2b12d19f43c79aa557d158f36b11ad54b5686101408201527f0d80f6003cbca6ddeb32a2cbf6a3e5eed8c65017043245f91d68548b2e0c01476101608201527f0d9045419b856cd885ab57bd07b707aa2bb9a40a183bef7781cd561c408369486101808201527f11ef964705f3a50187623b3a2a7a6f4515516beb5c9d2dce8b86fd3e6cc7d1186101a08201527f273f4d6fd98cfa1fd68eac634efb843a04c1b06d43aa184de491cc857ea46ad16101c08201527f1b6b4e11993b6b1a391b9275f32bd38857c273c8bcfa659bd04d357f3e4a871c6101e08201527f2c3f3326f2b2fe0fb34652695dafb5d21bda325f611d5aa2ddbf064c0a2c47ef6102008201527f0d9648cc5ee9de7713cc94057f9cebc8a8b0136b1c01b397fc4853585974851061022082015283610240820152826102608201527f2ff2fb65774322202b5b2b55881d034640ca7be3253f2ed0accea5772c0cde186102808201527f2e3eb48e534214da9b6e8a12f1497b3f77dce4a3e323c5a1e0851d96e859c6bc6102a08201527f044db83e2895daabfb27c711e04578c6744719d2b17172f51f285067ffcce2866102c08201527f26221be2df6942b825f81f0dc7d1df4b4c04bd71497f546ecd5f249339f2d7fa6102e08201526020816103008360085afa9150805182169150508061066d576040517f7fcdd1f400000000000000000000000000000000000000000000000000000000815260040160405180910390fd5b5050505050565b61067c612eef565b6000806106c6856000600481106106bc577f4e487b7100000000000000000000000000000000000000000000000000000000600052603260045260246000fd5b6020020135611f46565b915091506000806000806107568960026004811061070d577f4e487b7100000000000000000000000000000000000000000000000000000000600052603260045260246000fd5b60200201358a60016004811061074c577f4e487b7100000000000000000000000000000000000000000000000000000000600052603260045260246000fd5b60200201356120f2565b93509350935093506000806107a88b60036004811061079e577f4e487b7100000000000000000000000000000000000000000000000000000000600052603260045260246000fd5b6020020135611f46565b915091506000806107b88c611b0d565b91509150898b6000601881106107f7577f4e487b7100000000000000000000000000000000000000000000000000000000600052603260045260246000fd5b602002018181525050888b60016018811061083b577f4e487b7100000000000000000000000000000000000000000000000000000000600052603260045260246000fd5b602002018181525050868b60026018811061087f577f4e487b7100000000000000000000000000000000000000000000000000000000600052603260045260246000fd5b602002018181525050878b6003601881106108c3577f4e487b7100000000000000000000000000000000000000000000000000000000600052603260045260246000fd5b602002018181525050848b600460188110610907577f4e487b7100000000000000000000000000000000000000000000000000000000600052603260045260246000fd5b602002018181525050858b60056018811061094b577f4e487b7100000000000000000000000000000000000000000000000000000000600052603260045260246000fd5b602002018181525050838b60066018811061098f577f4e487b7100000000000000000000000000000000000000000000000000000000600052603260045260246000fd5b602002018181525050828b6007601881106109d3577f4e487b7100000000000000000000000000000000000000000000000000000000600052603260045260246000fd5b6020020181815250507f18ff5a9313f97784972fdae02ebc645f0ad1748b64d57ededf6e59e256625a858b600860188110610a37577f4e487b7100000000000000000000000000000000000000000000000000000000600052603260045260246000fd5b6020020181815250507f2dbfd0119a6d6e1a1471005de2bb947f419ce6adf6682873f5ffc2a427d6fb1a8b600960188110610a9b577f4e487b7100000000000000000000000000000000000000000000000000000000600052603260045260246000fd5b6020020181815250507f02b8f89e7c3cf1f8de19343f856a2b12d19f43c79aa557d158f36b11ad54b5688b600a60188110610aff577f4e487b7100000000000000000000000000000000000000000000000000000000600052603260045260246000fd5b6020020181815250507f0d80f6003cbca6ddeb32a2cbf6a3e5eed8c65017043245f91d68548b2e0c01478b600b60188110610b63577f4e487b7100000000000000000000000000000000000000000000000000000000600052603260045260246000fd5b6020020181815250507f0d9045419b856cd885ab57bd07b707aa2bb9a40a183bef7781cd561c408369488b600c60188110610bc7577f4e487b7100000000000000000000000000000000000000000000000000000000600052603260045260246000fd5b6020020181815250507f11ef964705f3a50187623b3a2a7a6f4515516beb5c9d2dce8b86fd3e6cc7d1188b600d60188110610c2b577f4e487b7100000000000000000000000000000000000000000000000000000000600052603260045260246000fd5b6020020181815250507f273f4d6fd98cfa1fd68eac634efb843a04c1b06d43aa184de491cc857ea46ad18b600e60188110610c8f577f4e487b7100000000000000000000000000000000000000000000000000000000600052603260045260246000fd5b6020020181815250507f1b6b4e11993b6b1a391b9275f32bd38857c273c8bcfa659bd04d357f3e4a871c8b600f60188110610cf3577f4e487b7100000000000000000000000000000000000000000000000000000000600052603260045260246000fd5b6020020181815250507f2c3f3326f2b2fe0fb34652695dafb5d21bda325f611d5aa2ddbf064c0a2c47ef8b601060188110610d57577f4e487b7100000000000000000000000000000000000000000000000000000000600052603260045260246000fd5b6020020181815250507f0d9648cc5ee9de7713cc94057f9cebc8a8b0136b1c01b397fc485358597485108b601160188110610dbb577f4e487b7100000000000000000000000000000000000000000000000000000000600052603260045260246000fd5b602002018181525050818b601260188110610dff577f4e487b7100000000000000000000000000000000000000000000000000000000600052603260045260246000fd5b602002018181525050808b601360188110610e43577f4e487b7100000000000000000000000000000000000000000000000000000000600052603260045260246000fd5b6020020181815250507f2ff2fb65774322202b5b2b55881d034640ca7be3253f2ed0accea5772c0cde188b601460188110610ea7577f4e487b7100000000000000000000000000000000000000000000000000000000600052603260045260246000fd5b6020020181815250507f2e3eb48e534214da9b6e8a12f1497b3f77dce4a3e323c5a1e0851d96e859c6bc8b601560188110610f0b577f4e487b7100000000000000000000000000000000000000000000000000000000600052603260045260246000fd5b6020020181815250507f044db83e2895daabfb27c711e04578c6744719d2b17172f51f285067ffcce2868b601660188110610f6f577f4e487b7100000000000000000000000000000000000000000000000000000000600052603260045260246000fd5b6020020181815250507f26221be2df6942b825f81f0dc7d1df4b4c04bd71497f546ecd5f249339f2d7fa8b601760188110610fd3577f4e487b7100000000000000000000000000000000000000000000000000000000600052603260045260246000fd5b6020020181815250506000610fe6612f12565b6020816103008f60085afa915081158061103f5750600181600060018110611037577f4e487b7100000000000000000000000000000000000000000000000000000000600052603260045260246000fd5b602002015114155b15611076576040517f7fcdd1f400000000000000000000000000000000000000000000000000000000815260040160405180910390fd5b505050505050505050505050505050565b60007f30644e72e131a029b85045b68181585d97816a916871ca8d3c208c16d87cfd47831015806110d857507f30644e72e131a029b85045b68181585d97816a916871ca8d3c208c16d87cfd478210155b1561110f576040517f7fcdd1f400000000000000000000000000000000000000000000000000000000815260040160405180910390fd5b60008314801561111f5750600082145b1561112d57600090506112a9565b600061123e7f30644e72e131a029b85045b68181585d97816a916871ca8d3c208c16d87cfd4780611187577f4e487b7100000000000000000000000000000000000000000000000000000000600052601260045260246000fd5b60037f30644e72e131a029b85045b68181585d97816a916871ca8d3c208c16d87cfd47806111de577f4e487b7100000000000000000000000000000000000000000000000000000000600052601260045260246000fd5b877f30644e72e131a029b85045b68181585d97816a916871ca8d3c208c16d87cfd4780611234577f4e487b7100000000000000000000000000000000000000000000000000000000600052601260045260246000fd5b898a0909086126a0565b905080831415611258576000600185901b179150506112a9565b61126181612763565b8314156112775760018085901b179150506112a9565b6040517f7fcdd1f400000000000000000000000000000000000000000000000000000000815260040160405180910390fd5b92915050565b6000807f30644e72e131a029b85045b68181585d97816a916871ca8d3c208c16d87cfd478610158061130157507f30644e72e131a029b85045b68181585d97816a916871ca8d3c208c16d87cfd478510155b8061132c57507f30644e72e131a029b85045b68181585d97816a916871ca8d3c208c16d87cfd478410155b8061135757507f30644e72e131a029b85045b68181585d97816a916871ca8d3c208c16d87cfd478310155b1561138e576040517f7fcdd1f400000000000000000000000000000000000000000000000000000000815260040160405180910390fd5b60008385878917171714156113a95760008091509150611b04565b60008060007f30644e72e131a029b85045b68181585d97816a916871ca8d3c208c16d87cfd4780611403577f4e487b7100000000000000000000000000000000000000000000000000000000600052601260045260246000fd5b60037f30644e72e131a029b85045b68181585d97816a916871ca8d3c208c16d87cfd4761143091906130f9565b7f30644e72e131a029b85045b68181585d97816a916871ca8d3c208c16d87cfd4780611485577f4e487b7100000000000000000000000000000000000000000000000000000000600052601260045260246000fd5b8a8c0909905060007f30644e72e131a029b85045b68181585d97816a916871ca8d3c208c16d87cfd47806114e2577f4e487b7100000000000000000000000000000000000000000000000000000000600052601260045260246000fd5b8a7f30644e72e131a029b85045b68181585d97816a916871ca8d3c208c16d87cfd4780611538577f4e487b7100000000000000000000000000000000000000000000000000000000600052601260045260246000fd5b8c8d0909905060007f30644e72e131a029b85045b68181585d97816a916871ca8d3c208c16d87cfd4780611595577f4e487b7100000000000000000000000000000000000000000000000000000000600052601260045260246000fd5b8a7f30644e72e131a029b85045b68181585d97816a916871ca8d3c208c16d87cfd47806115eb577f4e487b7100000000000000000000000000000000000000000000000000000000600052601260045260246000fd5b8c8d090990507f30644e72e131a029b85045b68181585d97816a916871ca8d3c208c16d87cfd4780611646577f4e487b7100000000000000000000000000000000000000000000000000000000600052601260045260246000fd5b7f30644e72e131a029b85045b68181585d97816a916871ca8d3c208c16d87cfd478061169b577f4e487b7100000000000000000000000000000000000000000000000000000000600052601260045260246000fd5b7f30644e72e131a029b85045b68181585d97816a916871ca8d3c208c16d87cfd47806116f0577f4e487b7100000000000000000000000000000000000000000000000000000000600052601260045260246000fd5b8c860984087f2b149d40ceb8aaae81be18991be06ac3b5b4c5e559dbefa33267e6dc24a138e50894506118477f30644e72e131a029b85045b68181585d97816a916871ca8d3c208c16d87cfd4780611771577f4e487b7100000000000000000000000000000000000000000000000000000000600052601260045260246000fd5b7f30644e72e131a029b85045b68181585d97816a916871ca8d3c208c16d87cfd47806117c6577f4e487b7100000000000000000000000000000000000000000000000000000000600052601260045260246000fd5b7f30644e72e131a029b85045b68181585d97816a916871ca8d3c208c16d87cfd478061181b577f4e487b7100000000000000000000000000000000000000000000000000000000600052601260045260246000fd5b8e870984087f2fcd3ac2a640a154eb23960892a85a68f031ca0c8344b23a577dcf1052b9e77508612763565b935050505060008061195d7f30644e72e131a029b85045b68181585d97816a916871ca8d3c208c16d87cfd47806118a7577f4e487b7100000000000000000000000000000000000000000000000000000000600052601260045260246000fd5b7f30644e72e131a029b85045b68181585d97816a916871ca8d3c208c16d87cfd47806118fc577f4e487b7100000000000000000000000000000000000000000000000000000000600052601260045260246000fd5b8586097f30644e72e131a029b85045b68181585d97816a916871ca8d3c208c16d87cfd4780611954577f4e487b7100000000000000000000000000000000000000000000000000000000600052601260045260246000fd5b878809086126a0565b9050611a367f30644e72e131a029b85045b68181585d97816a916871ca8d3c208c16d87cfd47806119b7577f4e487b7100000000000000000000000000000000000000000000000000000000600052601260045260246000fd5b7f183227397098d014dc2822db40c0ac2ecbc0b548b438e5469e10460b6c3e7ea47f30644e72e131a029b85045b68181585d97816a916871ca8d3c208c16d87cfd4780611a2d577f4e487b7100000000000000000000000000000000000000000000000000000000600052601260045260246000fd5b8488080961281b565b15915050611a458383836128ac565b80935081945050508287148015611a5b57508186145b15611a8557600081611a6e576000611a71565b60025b60ff1660028b901b17179450879350611b00565b611a8e83612763565b87148015611aa35750611aa082612763565b86145b15611acd57600181611ab6576000611ab9565b60025b60ff1660028b901b17179450879350611aff565b6040517f7fcdd1f400000000000000000000000000000000000000000000000000000000815260040160405180910390fd5b5b5050505b94509492505050565b6000806000600190506040516040810160007f0a78f70cb869a4edb66f30dd80818e77ea9a7419d37e38722fbbc95455015bab83527f1af10b63321ca65f3d9467165c9817a2147c1b1a6428d5561df9c98ae0854a8360208401527f2f649721e828abdfdfd78763db4851495c09c0561673f30aaaab690626c3111e82527f0c7e796241dcdf8bd20094c42e0b5aa4d7790a1e40724591c6c7ede1aebf0f006020830152863590508060408301527f30644e72e131a029b85045b68181585d2833e84879b9709143e1f593f000000181108416935060408260608460075afa8416935060408360808560065afa841693507f2b11869933a8c166051f65af8e2e623fd4f2ca18e616ad6a976d4e924874700082527f08374233db8ce87f298122027939faa7b6a1c96e00082ca442005bfbf2de13f66020830152602087013590508060408301527f30644e72e131a029b85045b68181585d2833e84879b9709143e1f593f000000181108416935060408260608460075afa8416935060408360808560065afa841693507f1aa990c4e7906c428ad51d0091eb6012a9794858f010c04b16025279231e155282527f110ef662e0e77ce3a572ba36e71fa2c4727e4684b61223b570c76a7081747d166020830152604087013590508060408301527f30644e72e131a029b85045b68181585d2833e84879b9709143e1f593f000000181108416935060408260608460075afa8416935060408360808560065afa841693507f284018b153da52c9cb84038d76b5e57b3a1000676ebddfff32c1a1d6a3bba39082527f1dea50fc000b5762809683b10b7b283840018cb48fbe3814e15ed240e4fbd0456020830152606087013590508060408301527f30644e72e131a029b85045b68181585d2833e84879b9709143e1f593f000000181108416935060408260608460075afa8416935060408360808560065afa841693507f05db6e3736ca326230eecd8722ed4840578c8f37e28da09cabed833e3cc1595182527f060edb2fed3e692b49e490d1dd7f913e5a0681f7f897232c254a5422920800bc6020830152608087013590508060408301527f30644e72e131a029b85045b68181585d2833e84879b9709143e1f593f000000181108416935060408260608460075afa8416935060408360808560065afa841693507f143213f898e17c084c1a589a0078bf22b02eaa861580ba782cdfffaa38c26ffe82527f1c875f4441095359dcea5af9b08215f12874ff268a369a14899cd1e829dcbfba602083015260a087013590508060408301527f30644e72e131a029b85045b68181585d2833e84879b9709143e1f593f000000181108416935060408260608460075afa8416935060408360808560065afa84169350825195506020830151945050505080611f40576040517fa54f8e2700000000000000000000000000000000000000000000000000000000815260040160405180910390fd5b50915091565b6000806000831415611f5e57600080915091506120ed565b60006001808516149050600184901c92507f30644e72e131a029b85045b68181585d97816a916871ca8d3c208c16d87cfd478310611fc8576040517f7fcdd1f400000000000000000000000000000000000000000000000000000000815260040160405180910390fd5b6120d77f30644e72e131a029b85045b68181585d97816a916871ca8d3c208c16d87cfd4780612020577f4e487b7100000000000000000000000000000000000000000000000000000000600052601260045260246000fd5b60037f30644e72e131a029b85045b68181585d97816a916871ca8d3c208c16d87cfd4780612077577f4e487b7100000000000000000000000000000000000000000000000000000000600052601260045260246000fd5b867f30644e72e131a029b85045b68181585d97816a916871ca8d3c208c16d87cfd47806120cd577f4e487b7100000000000000000000000000000000000000000000000000000000600052601260045260246000fd5b88890909086126a0565b915080156120eb576120e882612763565b91505b505b915091565b6000806000806000861480156121085750600085145b15612120576000806000809350935093509350612697565b6000600180881614905060006002808916149050600288901c95508694507f30644e72e131a029b85045b68181585d97816a916871ca8d3c208c16d87cfd478610158061218d57507f30644e72e131a029b85045b68181585d97816a916871ca8d3c208c16d87cfd478510155b156121c4576040517f7fcdd1f400000000000000000000000000000000000000000000000000000000815260040160405180910390fd5b60007f30644e72e131a029b85045b68181585d97816a916871ca8d3c208c16d87cfd478061221b577f4e487b7100000000000000000000000000000000000000000000000000000000600052601260045260246000fd5b60037f30644e72e131a029b85045b68181585d97816a916871ca8d3c208c16d87cfd4761224891906130f9565b7f30644e72e131a029b85045b68181585d97816a916871ca8d3c208c16d87cfd478061229d577f4e487b7100000000000000000000000000000000000000000000000000000000600052601260045260246000fd5b888a0909905060007f30644e72e131a029b85045b68181585d97816a916871ca8d3c208c16d87cfd47806122fa577f4e487b7100000000000000000000000000000000000000000000000000000000600052601260045260246000fd5b887f30644e72e131a029b85045b68181585d97816a916871ca8d3c208c16d87cfd4780612350577f4e487b7100000000000000000000000000000000000000000000000000000000600052601260045260246000fd5b8a8b0909905060007f30644e72e131a029b85045b68181585d97816a916871ca8d3c208c16d87cfd47806123ad577f4e487b7100000000000000000000000000000000000000000000000000000000600052601260045260246000fd5b887f30644e72e131a029b85045b68181585d97816a916871ca8d3c208c16d87cfd4780612403577f4e487b7100000000000000000000000000000000000000000000000000000000600052601260045260246000fd5b8a8b090990507f30644e72e131a029b85045b68181585d97816a916871ca8d3c208c16d87cfd478061245e577f4e487b7100000000000000000000000000000000000000000000000000000000600052601260045260246000fd5b7f30644e72e131a029b85045b68181585d97816a916871ca8d3c208c16d87cfd47806124b3577f4e487b7100000000000000000000000000000000000000000000000000000000600052601260045260246000fd5b7f30644e72e131a029b85045b68181585d97816a916871ca8d3c208c16d87cfd4780612508577f4e487b7100000000000000000000000000000000000000000000000000000000600052601260045260246000fd5b8a860984087f2b149d40ceb8aaae81be18991be06ac3b5b4c5e559dbefa33267e6dc24a138e508965061265f7f30644e72e131a029b85045b68181585d97816a916871ca8d3c208c16d87cfd4780612589577f4e487b7100000000000000000000000000000000000000000000000000000000600052601260045260246000fd5b7f30644e72e131a029b85045b68181585d97816a916871ca8d3c208c16d87cfd47806125de577f4e487b7100000000000000000000000000000000000000000000000000000000600052601260045260246000fd5b7f30644e72e131a029b85045b68181585d97816a916871ca8d3c208c16d87cfd4780612633577f4e487b7100000000000000000000000000000000000000000000000000000000600052601260045260246000fd5b8c870984087f2fcd3ac2a640a154eb23960892a85a68f031ca0c8344b23a577dcf1052b9e77508612763565b955061266c8787866128ac565b809750819850505084156126915761268387612763565b965061268e86612763565b95505b50505050505b92959194509250565b60006126cc827f0c19139cb84c680a6e14116da060561765e05aa45a1c72a34f082305b61f3f52612d71565b9050817f30644e72e131a029b85045b68181585d97816a916871ca8d3c208c16d87cfd4780612724577f4e487b7100000000000000000000000000000000000000000000000000000000600052601260045260246000fd5b8283091461275e576040517f7fcdd1f400000000000000000000000000000000000000000000000000000000815260040160405180910390fd5b919050565b60007f30644e72e131a029b85045b68181585d97816a916871ca8d3c208c16d87cfd478083816127bc577f4e487b7100000000000000000000000000000000000000000000000000000000600052601260045260246000fd5b067f30644e72e131a029b85045b68181585d97816a916871ca8d3c208c16d87cfd470381612813577f4e487b7100000000000000000000000000000000000000000000000000000000600052601260045260246000fd5b069050919050565b600080612848837f0c19139cb84c680a6e14116da060561765e05aa45a1c72a34f082305b61f3f52612d71565b9050827f30644e72e131a029b85045b68181585d97816a916871ca8d3c208c16d87cfd47806128a0577f4e487b7100000000000000000000000000000000000000000000000000000000600052601260045260246000fd5b82830914915050919050565b60008060006129bf7f30644e72e131a029b85045b68181585d97816a916871ca8d3c208c16d87cfd4780612909577f4e487b7100000000000000000000000000000000000000000000000000000000600052601260045260246000fd5b7f30644e72e131a029b85045b68181585d97816a916871ca8d3c208c16d87cfd478061295e577f4e487b7100000000000000000000000000000000000000000000000000000000600052601260045260246000fd5b8788097f30644e72e131a029b85045b68181585d97816a916871ca8d3c208c16d87cfd47806129b6577f4e487b7100000000000000000000000000000000000000000000000000000000600052601260045260246000fd5b898a09086126a0565b905083156129d3576129d081612763565b90505b612aaa7f30644e72e131a029b85045b68181585d97816a916871ca8d3c208c16d87cfd4780612a2b577f4e487b7100000000000000000000000000000000000000000000000000000000600052601260045260246000fd5b7f183227397098d014dc2822db40c0ac2ecbc0b548b438e5469e10460b6c3e7ea47f30644e72e131a029b85045b68181585d97816a916871ca8d3c208c16d87cfd4780612aa1577f4e487b7100000000000000000000000000000000000000000000000000000000600052601260045260246000fd5b848a08096126a0565b92507f30644e72e131a029b85045b68181585d97816a916871ca8d3c208c16d87cfd4780612b01577f4e487b7100000000000000000000000000000000000000000000000000000000600052601260045260246000fd5b612b627f30644e72e131a029b85045b68181585d97816a916871ca8d3c208c16d87cfd4780612b59577f4e487b7100000000000000000000000000000000000000000000000000000000600052601260045260246000fd5b60028609612e09565b860991507f30644e72e131a029b85045b68181585d97816a916871ca8d3c208c16d87cfd4780612bbb577f4e487b7100000000000000000000000000000000000000000000000000000000600052601260045260246000fd5b612c1b7f30644e72e131a029b85045b68181585d97816a916871ca8d3c208c16d87cfd4780612c13577f4e487b7100000000000000000000000000000000000000000000000000000000600052601260045260246000fd5b848509612763565b7f30644e72e131a029b85045b68181585d97816a916871ca8d3c208c16d87cfd4780612c70577f4e487b7100000000000000000000000000000000000000000000000000000000600052601260045260246000fd5b8586090886141580612d3157507f30644e72e131a029b85045b68181585d97816a916871ca8d3c208c16d87cfd4780612cd2577f4e487b7100000000000000000000000000000000000000000000000000000000600052601260045260246000fd5b7f30644e72e131a029b85045b68181585d97816a916871ca8d3c208c16d87cfd4780612d27577f4e487b7100000000000000000000000000000000000000000000000000000000600052601260045260246000fd5b8385096002098514155b15612d68576040517f7fcdd1f400000000000000000000000000000000000000000000000000000000815260040160405180910390fd5b50935093915050565b60008060405160208152602080820152602060408201528460608201528360808201527f30644e72e131a029b85045b68181585d97816a916871ca8d3c208c16d87cfd4760a082015260208160c08360055afa9150805192505080612e02576040517f7fcdd1f400000000000000000000000000000000000000000000000000000000815260040160405180910390fd5b5092915050565b6000612e35827f30644e72e131a029b85045b68181585d97816a916871ca8d3c208c16d87cfd45612d71565b905060017f30644e72e131a029b85045b68181585d97816a916871ca8d3c208c16d87cfd4780612e8e577f4e487b7100000000000000000000000000000000000000000000000000000000600052601260045260246000fd5b82840914612ec8576040517f7fcdd1f400000000000000000000000000000000000000000000000000000000815260040160405180910390fd5b919050565b6040518060800160405280600490602082028036833780820191505090505090565b604051806103000160405280601890602082028036833780820191505090505090565b6040518060200160405280600190602082028036833780820191505090505090565b600081905082602060040282011115612f4c57600080fd5b92915050565b600081905082602060060282011115612f6a57600080fd5b92915050565b600081905082602060080282011115612f8857600080fd5b92915050565b6000806101408385031215612fa257600080fd5b6000612fb085828601612f34565b9250506080612fc185828601612f52565b9150509250929050565b60006101008284031215612fde57600080fd5b6000612fec84828501612f70565b91505092915050565b6000806101c0838503121561300957600080fd5b600061301785828601612f70565b92505061010061302985828601612f52565b9150509250929050565b600061303f83836130a2565b60208301905092915050565b613054816130d6565b61305e81846130ee565b9250613069826130cc565b8060005b8381101561309a5781516130818782613033565b965061308c836130e1565b92505060018101905061306d565b505050505050565b6130ab8161312d565b82525050565b60006080820190506130c6600083018461304b565b92915050565b6000819050919050565b600060049050919050565b6000602082019050919050565b600081905092915050565b60006131048261312d565b915061310f8361312d565b92508282101561312257613121613137565b5b828203905092915050565b6000819050919050565b7f4e487b7100000000000000000000000000000000000000000000000000000000600052601160045260246000fdfea26469706673582212204efa7d827dbca1a6c4bcccdec7ca6c796032a5f80a941a5c298ed2660623df6264736f6c63430008040033",
  "immutableReferences": {},
  "source": "\n// SPDX-License-Identifier: MIT\n\npragma solidity ^0.8.4;\n\n/// @title Groth16 verifier template.\n/// @author Remco Bloemen\n/// @notice Supports verifying Groth16 proofs. Proofs can be in uncompressed\n/// (256 bytes) and compressed (128 bytes) format. A view function is provided\n/// to compress proofs.\n/// @notice See <https://2.com/23/bn254-compression> for further explanation.\ncontract Verifier {\n\n    /// Some of the provided public input values are larger than the field modulus.\n    /// @dev Public input elements are not automatically reduced, as this is can be\n    /// a dangerous source of bugs.\n    error PublicInputNotInField();\n\n    /// The proof is invalid.\n    /// @dev This can mean that provided Groth16 proof points are not on their\n    /// curves, that pairing equation fails, or that the proof is not for the\n    /// provided public input.\n    error ProofInvalid();\n\n    // Addresses of precompiles\n    uint256 constant PRECOMPILE_MODEXP = 0x05;\n    uint256 constant PRECOMPILE_ADD = 0x06;\n    uint256 constant PRECOMPILE_MUL = 0x07;\n    uint256 constant PRECOMPILE_VERIFY = 0x08;\n\n    // Base field Fp order P and scalar field Fr order R.\n    // For BN254 these are computed as follows:\n    //     t = 4965661367192848881\n    //     P = 36t + 36t + 24t + 6t + 1\n    //     R = 36t + 36t + 18t + 6t + 1\n    uint256 constant P = 0x30644e72e131a029b85045b68181585d97816a916871ca8d3c208c16d87cfd47;\n    uint256 constant R = 0x30644e72e131a029b85045b68181585d2833e84879b9709143e1f593f0000001;\n\n    // Extension field Fp2 = Fp[i] / (i + 1)\n    // Note: This is the complex extension field of Fp with i = -1.\n    //       Values in Fp2 are represented as a pair of Fp elements (a, a) as a + ai.\n    // Note: The order of Fp2 elements is *opposite* that of the pairing contract, which\n    //       expects Fp2 elements in order (a, a). This is also the order in which\n    //       Fp2 elements are encoded in the public interface as this became convention.\n\n    // Constants in Fp\n    uint256 constant FRACTION_1_2_FP = 0x183227397098d014dc2822db40c0ac2ecbc0b548b438e5469e10460b6c3e7ea4;\n    uint256 constant FRACTION_27_82_FP = 0x2b149d40ceb8aaae81be18991be06ac3b5b4c5e559dbefa33267e6dc24a138e5;\n    uint256 constant FRACTION_3_82_FP = 0x2fcd3ac2a640a154eb23960892a85a68f031ca0c8344b23a577dcf1052b9e775;\n\n    // Exponents for inversions and square roots mod P\n    uint256 constant EXP_INVERSE_FP = 0x30644E72E131A029B85045B68181585D97816A916871CA8D3C208C16D87CFD45; // P - 2\n    uint256 constant EXP_SQRT_FP = 0xC19139CB84C680A6E14116DA060561765E05AA45A1C72A34F082305B61F3F52; // (P + 1) / 4;\n\n    // Groth16 alpha point in G1\n    uint256 constant ALPHA_X = 6134970998183305449603739311529577801340609841053940193732143921671142861128;\n    uint256 constant ALPHA_Y = 8112632051132585423954512192969258052937261535199026709431849894990150357272;\n\n    // Groth16 beta point in G2 in powers of i\n    uint256 constant BETA_NEG_X_0 = 12402038358350846539366856580891538420886344906611806459171670627717659395868;\n    uint256 constant BETA_NEG_X_1 = 17752046909761972172401340071513452967283250056333559734933884307660519795409;\n    uint256 constant BETA_NEG_Y_0 = 6145596526860873262628663274472390024680426498961709517397813133434212877584;\n    uint256 constant BETA_NEG_Y_1 = 20013429741845626769074685555778936742871215158964506291750331919024966617071;\n\n    // Groth16 gamma point in G2 in powers of i\n    uint256 constant GAMMA_NEG_X_0 = 20917181704269467275145951310095928175736317423755575082938815538164129187516;\n    uint256 constant GAMMA_NEG_X_1 = 21688015946937326822747943879229170024082891303449520812965576893897013779992;\n    uint256 constant GAMMA_NEG_Y_0 = 17248153509993840697205581891849108223018047294515413665228946078301494106106;\n    uint256 constant GAMMA_NEG_Y_1 = 1946570215439642077486625447604593611370616343277168342189547530443444511366;\n\n    // Groth16 delta point in G2 in powers of i\n    uint256 constant DELTA_NEG_X_0 = 20692982013441994505614205154919554624544616331227043594471405032733800856346;\n    uint256 constant DELTA_NEG_X_1 = 11306679489903810805196059989111836798966149918770478305723073197420046342789;\n    uint256 constant DELTA_NEG_Y_0 = 6107921291871751080760976702917951081546020351371001254417383262046749720903;\n    uint256 constant DELTA_NEG_Y_1 = 1231441462935128532506990704870997633882500848776789770748763101616363844968;\n\n    // Constant and public input points\n    uint256 constant CONSTANT_X = 4736855207894008469976261980239046894947786187530252841298204037642247560107;\n    uint256 constant CONSTANT_Y = 12186022799298451930130053749479231447601408517036487947179157399784531511939;\n    uint256 constant PUB_0_X = 21436431667717146981973903458142256055289954929894846097556696698923337847070;\n    uint256 constant PUB_0_Y = 5651214673480169058947500008866544050864718247480362881734711138334657154816;\n    uint256 constant PUB_1_X = 19480417853504346089187692855499006911407661098427765429402101854083304681472;\n    uint256 constant PUB_1_Y = 3716136290566468589762414988770481870662030894739132816735247306040130016246;\n    uint256 constant PUB_2_X = 12059730377122509158618726205497744043929655072362656474685687471085830673746;\n    uint256 constant PUB_2_Y = 7715754780183691753633554162109119160269680922591674193800193901695612517654;\n    uint256 constant PUB_3_X = 18205762578130088433691959747134723793554804732888265659995844195817436717968;\n    uint256 constant PUB_3_Y = 13531073755691836122464536498969870077517322970013608073013829245365751894085;\n    uint256 constant PUB_4_X = 2649264430768054458851990831332634668997610860599615393023542528602896685393;\n    uint256 constant PUB_4_Y = 2740125724958623646712030480404680471196456332239821596163859550670068121788;\n    uint256 constant PUB_5_X = 9134737160251836735386628665194042709975414290886386957443675721389840691198;\n    uint256 constant PUB_5_Y = 12903941620104994512396882870708862189512809422880428593253893741449179873210;\n\n    /// Negation in Fp.\n    /// @notice Returns a number x such that a + x = 0 in Fp.\n    /// @notice The input does not need to be reduced.\n    /// @param a the base\n    /// @return x the result\n    function negate(uint256 a) internal pure returns (uint256 x) {\n        unchecked {\n            x = (P - (a % P)) % P; // Modulo is cheaper than branching\n        }\n    }\n\n    /// Exponentiation in Fp.\n    /// @notice Returns a number x such that a ^ e = x in Fp.\n    /// @notice The input does not need to be reduced.\n    /// @param a the base\n    /// @param e the exponent\n    /// @return x the result\n    function exp(uint256 a, uint256 e) internal view returns (uint256 x) {\n        bool success;\n        assembly {\n            let f := mload(0x40)\n            mstore(f, 0x20)\n            mstore(add(f, 0x20), 0x20)\n            mstore(add(f, 0x40), 0x20)\n            mstore(add(f, 0x60), a)\n            mstore(add(f, 0x80), e)\n            mstore(add(f, 0xa0), P)\n            success := staticcall(gas(), PRECOMPILE_MODEXP, f, 0xc0, f, 0x20)\n            x := mload(f)\n        }\n        if (!success) {\n            // Exponentiation failed.\n            // Should not happen.\n            revert ProofInvalid();\n        }\n    }\n\n    /// Invertsion in Fp.\n    /// @notice Returns a number x such that a * x = 1 in Fp.\n    /// @notice The input does not need to be reduced.\n    /// @notice Reverts with ProofInvalid() if the inverse does not exist\n    /// @param a the input\n    /// @return x the solution\n    function invert_Fp(uint256 a) internal view returns (uint256 x) {\n        x = exp(a, EXP_INVERSE_FP);\n        if (mulmod(a, x, P) != 1) {\n            // Inverse does not exist.\n            // Can only happen during G2 point decompression.\n            revert ProofInvalid();\n        }\n    }\n\n    /// Square root in Fp.\n    /// @notice Returns a number x such that x * x = a in Fp.\n    /// @notice Will revert with InvalidProof() if the input is not a square\n    /// or not reduced.\n    /// @param a the square\n    /// @return x the solution\n    function sqrt_Fp(uint256 a) internal view returns (uint256 x) {\n        x = exp(a, EXP_SQRT_FP);\n        if (mulmod(x, x, P) != a) {\n            // Square root does not exist or a is not reduced.\n            // Happens when G1 point is not on curve.\n            revert ProofInvalid();\n        }\n    }\n\n    /// Square test in Fp.\n    /// @notice Returns whether a number x exists such that x * x = a in Fp.\n    /// @notice Will revert with InvalidProof() if the input is not a square\n    /// or not reduced.\n    /// @param a the square\n    /// @return x the solution\n    function isSquare_Fp(uint256 a) internal view returns (bool) {\n        uint256 x = exp(a, EXP_SQRT_FP);\n        return mulmod(x, x, P) == a;\n    }\n\n    /// Square root in Fp2.\n    /// @notice Fp2 is the complex extension Fp[i]/(i^2 + 1). The input is\n    /// a0 + a1  i and the result is x0 + x1  i.\n    /// @notice Will revert with InvalidProof() if\n    ///   * the input is not a square,\n    ///   * the hint is incorrect, or\n    ///   * the input coefficents are not reduced.\n    /// @param a0 The real part of the input.\n    /// @param a1 The imaginary part of the input.\n    /// @param hint A hint which of two possible signs to pick in the equation.\n    /// @return x0 The real part of the square root.\n    /// @return x1 The imaginary part of the square root.\n    function sqrt_Fp2(uint256 a0, uint256 a1, bool hint) internal view returns (uint256 x0, uint256 x1) {\n        // If this square root reverts there is no solution in Fp2.\n        uint256 d = sqrt_Fp(addmod(mulmod(a0, a0, P), mulmod(a1, a1, P), P));\n        if (hint) {\n            d = negate(d);\n        }\n        // If this square root reverts there is no solution in Fp2.\n        x0 = sqrt_Fp(mulmod(addmod(a0, d, P), FRACTION_1_2_FP, P));\n        x1 = mulmod(a1, invert_Fp(mulmod(x0, 2, P)), P);\n\n        // Check result to make sure we found a root.\n        // Note: this also fails if a0 or a1 is not reduced.\n        if (a0 != addmod(mulmod(x0, x0, P), negate(mulmod(x1, x1, P)), P)\n        ||  a1 != mulmod(2, mulmod(x0, x1, P), P)) {\n            revert ProofInvalid();\n        }\n    }\n\n    /// Compress a G1 point.\n    /// @notice Reverts with InvalidProof if the coordinates are not reduced\n    /// or if the point is not on the curve.\n    /// @notice The point at infinity is encoded as (0,0) and compressed to 0.\n    /// @param x The X coordinate in Fp.\n    /// @param y The Y coordinate in Fp.\n    /// @return c The compresed point (x with one signal bit).\n    function compress_g1(uint256 x, uint256 y) internal view returns (uint256 c) {\n        if (x >= P || y >= P) {\n            // G1 point not in field.\n            revert ProofInvalid();\n        }\n        if (x == 0 && y == 0) {\n            // Point at infinity\n            return 0;\n        }\n\n        // Note: sqrt_Fp reverts if there is no solution, i.e. the x coordinate is invalid.\n        uint256 y_pos = sqrt_Fp(addmod(mulmod(mulmod(x, x, P), x, P), 3, P));\n        if (y == y_pos) {\n            return (x << 1) | 0;\n        } else if (y == negate(y_pos)) {\n            return (x << 1) | 1;\n        } else {\n            // G1 point not on curve.\n            revert ProofInvalid();\n        }\n    }\n\n    /// Decompress a G1 point.\n    /// @notice Reverts with InvalidProof if the input does not represent a valid point.\n    /// @notice The point at infinity is encoded as (0,0) and compressed to 0.\n    /// @param c The compresed point (x with one signal bit).\n    /// @return x The X coordinate in Fp.\n    /// @return y The Y coordinate in Fp.\n    function decompress_g1(uint256 c) internal view returns (uint256 x, uint256 y) {\n        // Note that X = 0 is not on the curve since 0 + 3 = 3 is not a square.\n        // so we can use it to represent the point at infinity.\n        if (c == 0) {\n            // Point at infinity as encoded in EIP196 and EIP197.\n            return (0, 0);\n        }\n        bool negate_point = c & 1 == 1;\n        x = c >> 1;\n        if (x >= P) {\n            // G1 x coordinate not in field.\n            revert ProofInvalid();\n        }\n\n        // Note: (x + 3) is irreducible in Fp, so it can not be zero and therefore\n        //       y can not be zero.\n        // Note: sqrt_Fp reverts if there is no solution, i.e. the point is not on the curve.\n        y = sqrt_Fp(addmod(mulmod(mulmod(x, x, P), x, P), 3, P));\n        if (negate_point) {\n            y = negate(y);\n        }\n    }\n\n    /// Compress a G2 point.\n    /// @notice Reverts with InvalidProof if the coefficients are not reduced\n    /// or if the point is not on the curve.\n    /// @notice The G2 curve is defined over the complex extension Fp[i]/(i^2 + 1)\n    /// with coordinates (x0 + x1  i, y0 + y1  i).\n    /// @notice The point at infinity is encoded as (0,0,0,0) and compressed to (0,0).\n    /// @param x0 The real part of the X coordinate.\n    /// @param x1 The imaginary poart of the X coordinate.\n    /// @param y0 The real part of the Y coordinate.\n    /// @param y1 The imaginary part of the Y coordinate.\n    /// @return c0 The first half of the compresed point (x0 with two signal bits).\n    /// @return c1 The second half of the compressed point (x1 unmodified).\n    function compress_g2(uint256 x0, uint256 x1, uint256 y0, uint256 y1)\n    internal view returns (uint256 c0, uint256 c1) {\n        if (x0 >= P || x1 >= P || y0 >= P || y1 >= P) {\n            // G2 point not in field.\n            revert ProofInvalid();\n        }\n        if ((x0 | x1 | y0 | y1) == 0) {\n            // Point at infinity\n            return (0, 0);\n        }\n\n        // Compute y^2\n        // Note: shadowing variables and scoping to avoid stack-to-deep.\n        uint256 y0_pos;\n        uint256 y1_pos;\n        {\n            uint256 n3ab = mulmod(mulmod(x0, x1, P), P-3, P);\n            uint256 a_3 = mulmod(mulmod(x0, x0, P), x0, P);\n            uint256 b_3 = mulmod(mulmod(x1, x1, P), x1, P);\n            y0_pos = addmod(FRACTION_27_82_FP, addmod(a_3, mulmod(n3ab, x1, P), P), P);\n            y1_pos = negate(addmod(FRACTION_3_82_FP,  addmod(b_3, mulmod(n3ab, x0, P), P), P));\n        }\n\n        // Determine hint bit\n        // If this sqrt fails the x coordinate is not on the curve.\n        bool hint;\n        {\n            uint256 d = sqrt_Fp(addmod(mulmod(y0_pos, y0_pos, P), mulmod(y1_pos, y1_pos, P), P));\n            hint = !isSquare_Fp(mulmod(addmod(y0_pos, d, P), FRACTION_1_2_FP, P));\n        }\n\n        // Recover y\n        (y0_pos, y1_pos) = sqrt_Fp2(y0_pos, y1_pos, hint);\n        if (y0 == y0_pos && y1 == y1_pos) {\n            c0 = (x0 << 2) | (hint ? 2  : 0) | 0;\n            c1 = x1;\n        } else if (y0 == negate(y0_pos) && y1 == negate(y1_pos)) {\n            c0 = (x0 << 2) | (hint ? 2  : 0) | 1;\n            c1 = x1;\n        } else {\n            // G1 point not on curve.\n            revert ProofInvalid();\n        }\n    }\n\n    /// Decompress a G2 point.\n    /// @notice Reverts with InvalidProof if the input does not represent a valid point.\n    /// @notice The G2 curve is defined over the complex extension Fp[i]/(i^2 + 1)\n    /// with coordinates (x0 + x1  i, y0 + y1  i).\n    /// @notice The point at infinity is encoded as (0,0,0,0) and compressed to (0,0).\n    /// @param c0 The first half of the compresed point (x0 with two signal bits).\n    /// @param c1 The second half of the compressed point (x1 unmodified).\n    /// @return x0 The real part of the X coordinate.\n    /// @return x1 The imaginary poart of the X coordinate.\n    /// @return y0 The real part of the Y coordinate.\n    /// @return y1 The imaginary part of the Y coordinate.\n    function decompress_g2(uint256 c0, uint256 c1)\n    internal view returns (uint256 x0, uint256 x1, uint256 y0, uint256 y1) {\n        // Note that X = (0, 0) is not on the curve since 0 + 3/(9 + i) is not a square.\n        // so we can use it to represent the point at infinity.\n        if (c0 == 0 && c1 == 0) {\n            // Point at infinity as encoded in EIP197.\n            return (0, 0, 0, 0);\n        }\n        bool negate_point = c0 & 1 == 1;\n        bool hint = c0 & 2 == 2;\n        x0 = c0 >> 2;\n        x1 = c1;\n        if (x0 >= P || x1 >= P) {\n            // G2 x0 or x1 coefficient not in field.\n            revert ProofInvalid();\n        }\n\n        uint256 n3ab = mulmod(mulmod(x0, x1, P), P-3, P);\n        uint256 a_3 = mulmod(mulmod(x0, x0, P), x0, P);\n        uint256 b_3 = mulmod(mulmod(x1, x1, P), x1, P);\n\n        y0 = addmod(FRACTION_27_82_FP, addmod(a_3, mulmod(n3ab, x1, P), P), P);\n        y1 = negate(addmod(FRACTION_3_82_FP,  addmod(b_3, mulmod(n3ab, x0, P), P), P));\n\n        // Note: sqrt_Fp2 reverts if there is no solution, i.e. the point is not on the curve.\n        // Note: (X + 3/(9 + i)) is irreducible in Fp2, so y can not be zero.\n        //       But y0 or y1 may still independently be zero.\n        (y0, y1) = sqrt_Fp2(y0, y1, hint);\n        if (negate_point) {\n            y0 = negate(y0);\n            y1 = negate(y1);\n        }\n    }\n\n    /// Compute the public input linear combination.\n    /// @notice Reverts with PublicInputNotInField if the input is not in the field.\n    /// @notice Computes the multi-scalar-multiplication of the public input\n    /// elements and the verification key including the constant term.\n    /// @param input The public inputs. These are elements of the scalar field Fr.\n    /// @return x The X coordinate of the resulting G1 point.\n    /// @return y The Y coordinate of the resulting G1 point.\n    function publicInputMSM(uint256[6] calldata input)\n    internal view returns (uint256 x, uint256 y) {\n        // Note: The ECMUL precompile does not reject unreduced values, so we check this.\n        // Note: Unrolling this loop does not cost much extra in code-size, the bulk of the\n        //       code-size is in the PUB_ constants.\n        // ECMUL has input (x, y, scalar) and output (x', y').\n        // ECADD has input (x1, y1, x2, y2) and output (x', y').\n        // We reduce commitments(if any) with constants as the first point argument to ECADD.\n        // We call them such that ecmul output is already in the second point\n        // argument to ECADD so we can have a tight loop.\n        bool success = true;\n        assembly {\n            let f := mload(0x40)\n            let g := add(f, 0x40)\n            let s\n            mstore(f, CONSTANT_X)\n            mstore(add(f, 0x20), CONSTANT_Y)\n            mstore(g, PUB_0_X)\n            mstore(add(g, 0x20), PUB_0_Y)\n            s :=  calldataload(input)\n            mstore(add(g, 0x40), s)\n            success := and(success, lt(s, R))\n            success := and(success, staticcall(gas(), PRECOMPILE_MUL, g, 0x60, g, 0x40))\n            success := and(success, staticcall(gas(), PRECOMPILE_ADD, f, 0x80, f, 0x40))\n            mstore(g, PUB_1_X)\n            mstore(add(g, 0x20), PUB_1_Y)\n            s :=  calldataload(add(input, 32))\n            mstore(add(g, 0x40), s)\n            success := and(success, lt(s, R))\n            success := and(success, staticcall(gas(), PRECOMPILE_MUL, g, 0x60, g, 0x40))\n            success := and(success, staticcall(gas(), PRECOMPILE_ADD, f, 0x80, f, 0x40))\n            mstore(g, PUB_2_X)\n            mstore(add(g, 0x20), PUB_2_Y)\n            s :=  calldataload(add(input, 64))\n            mstore(add(g, 0x40), s)\n            success := and(success, lt(s, R))\n            success := and(success, staticcall(gas(), PRECOMPILE_MUL, g, 0x60, g, 0x40))\n            success := and(success, staticcall(gas(), PRECOMPILE_ADD, f, 0x80, f, 0x40))\n            mstore(g, PUB_3_X)\n            mstore(add(g, 0x20), PUB_3_Y)\n            s :=  calldataload(add(input, 96))\n            mstore(add(g, 0x40), s)\n            success := and(success, lt(s, R))\n            success := and(success, staticcall(gas(), PRECOMPILE_MUL, g, 0x60, g, 0x40))\n            success := and(success, staticcall(gas(), PRECOMPILE_ADD, f, 0x80, f, 0x40))\n            mstore(g, PUB_4_X)\n            mstore(add(g, 0x20), PUB_4_Y)\n            s :=  calldataload(add(input, 128))\n            mstore(add(g, 0x40), s)\n            success := and(success, lt(s, R))\n            success := and(success, staticcall(gas(), PRECOMPILE_MUL, g, 0x60, g, 0x40))\n            success := and(success, staticcall(gas(), PRECOMPILE_ADD, f, 0x80, f, 0x40))\n            mstore(g, PUB_5_X)\n            mstore(add(g, 0x20), PUB_5_Y)\n            s :=  calldataload(add(input, 160))\n            mstore(add(g, 0x40), s)\n            success := and(success, lt(s, R))\n            success := and(success, staticcall(gas(), PRECOMPILE_MUL, g, 0x60, g, 0x40))\n            success := and(success, staticcall(gas(), PRECOMPILE_ADD, f, 0x80, f, 0x40))\n\n            x := mload(f)\n            y := mload(add(f, 0x20))\n        }\n        if (!success) {\n            // Either Public input not in field, or verification key invalid.\n            // We assume the contract is correctly generated, so the verification key is valid.\n            revert PublicInputNotInField();\n        }\n    }\n\n    /// Compress a proof.\n    /// @notice Will revert with InvalidProof if the curve points are invalid,\n    /// but does not verify the proof itself.\n    /// @param proof The uncompressed Groth16 proof. Elements are in the same order as for\n    /// verifyProof. I.e. Groth16 points (A, B, C) encoded as in EIP-197.\n    /// @return compressed The compressed proof. Elements are in the same order as for\n    /// verifyCompressedProof. I.e. points (A, B, C) in compressed format.\n    function compressProof(uint256[8] calldata proof)\n    public view returns (uint256[4] memory compressed) {\n        compressed[0] = compress_g1(proof[0], proof[1]);\n        (compressed[2], compressed[1]) = compress_g2(proof[3], proof[2], proof[5], proof[4]);\n        compressed[3] = compress_g1(proof[6], proof[7]);\n    }\n\n    /// Verify a Groth16 proof with compressed points.\n    /// @notice Reverts with InvalidProof if the proof is invalid or\n    /// with PublicInputNotInField the public input is not reduced.\n    /// @notice There is no return value. If the function does not revert, the\n    /// proof was successfully verified.\n    /// @param compressedProof the points (A, B, C) in compressed format\n    /// matching the output of compressProof.\n    /// @param input the public input field elements in the scalar field Fr.\n    /// Elements must be reduced.\n    function verifyCompressedProof(\n        uint256[4] calldata compressedProof,\n        uint256[6] calldata input\n    ) public view {\n        uint256[24] memory pairings;\n\n        {\n            (uint256 Ax, uint256 Ay) = decompress_g1(compressedProof[0]);\n            (uint256 Bx0, uint256 Bx1, uint256 By0, uint256 By1) = decompress_g2(compressedProof[2], compressedProof[1]);\n            (uint256 Cx, uint256 Cy) = decompress_g1(compressedProof[3]);\n            (uint256 Lx, uint256 Ly) = publicInputMSM(input);\n\n            // Verify the pairing\n            // Note: The precompile expects the F2 coefficients in big-endian order.\n            // Note: The pairing precompile rejects unreduced values, so we won't check that here.\n            // e(A, B)\n            pairings[ 0] = Ax;\n            pairings[ 1] = Ay;\n            pairings[ 2] = Bx1;\n            pairings[ 3] = Bx0;\n            pairings[ 4] = By1;\n            pairings[ 5] = By0;\n            // e(C, -)\n            pairings[ 6] = Cx;\n            pairings[ 7] = Cy;\n            pairings[ 8] = DELTA_NEG_X_1;\n            pairings[ 9] = DELTA_NEG_X_0;\n            pairings[10] = DELTA_NEG_Y_1;\n            pairings[11] = DELTA_NEG_Y_0;\n            // e(, -)\n            pairings[12] = ALPHA_X;\n            pairings[13] = ALPHA_Y;\n            pairings[14] = BETA_NEG_X_1;\n            pairings[15] = BETA_NEG_X_0;\n            pairings[16] = BETA_NEG_Y_1;\n            pairings[17] = BETA_NEG_Y_0;\n            // e(L_pub, -)\n            pairings[18] = Lx;\n            pairings[19] = Ly;\n            pairings[20] = GAMMA_NEG_X_1;\n            pairings[21] = GAMMA_NEG_X_0;\n            pairings[22] = GAMMA_NEG_Y_1;\n            pairings[23] = GAMMA_NEG_Y_0;\n\n            // Check pairing equation.\n            bool success;\n            uint256[1] memory output;\n            assembly {\n                success := staticcall(gas(), PRECOMPILE_VERIFY, pairings, 0x300, output, 0x20)\n            }\n            if (!success || output[0] != 1) {\n                // Either proof or verification key invalid.\n                // We assume the contract is correctly generated, so the verification key is valid.\n                revert ProofInvalid();\n            }\n        }\n    }\n\n    /// Verify an uncompressed Groth16 proof.\n    /// @notice Reverts with InvalidProof if the proof is invalid or\n    /// with PublicInputNotInField the public input is not reduced.\n    /// @notice There is no return value. If the function does not revert, the\n    /// proof was successfully verified.\n    /// @param proof the points (A, B, C) in EIP-197 format matching the output\n    /// of compressProof.\n    /// @param input the public input field elements in the scalar field Fr.\n    /// Elements must be reduced.\n    function verifyProof(\n        uint256[8] calldata proof,\n        uint256[6] calldata input\n    ) public view {\n        (uint256 x, uint256 y) = publicInputMSM(input);\n\n        // Note: The precompile expects the F2 coefficients in big-endian order.\n        // Note: The pairing precompile rejects unreduced values, so we won't check that here.\n        bool success;\n        assembly {\n            let f := mload(0x40) // Free memory pointer.\n\n            // Copy points (A, B, C) to memory. They are already in correct encoding.\n            // This is pairing e(A, B) and G1 of e(C, -).\n            calldatacopy(f, proof, 0x100)\n\n            // Complete e(C, -) and write e(, -), e(L_pub, -) to memory.\n            // OPT: This could be better done using a single codecopy, but\n            //      Solidity (unlike standalone Yul) doesn't provide a way to\n            //      to do this.\n            mstore(add(f, 0x100), DELTA_NEG_X_1)\n            mstore(add(f, 0x120), DELTA_NEG_X_0)\n            mstore(add(f, 0x140), DELTA_NEG_Y_1)\n            mstore(add(f, 0x160), DELTA_NEG_Y_0)\n            mstore(add(f, 0x180), ALPHA_X)\n            mstore(add(f, 0x1a0), ALPHA_Y)\n            mstore(add(f, 0x1c0), BETA_NEG_X_1)\n            mstore(add(f, 0x1e0), BETA_NEG_X_0)\n            mstore(add(f, 0x200), BETA_NEG_Y_1)\n            mstore(add(f, 0x220), BETA_NEG_Y_0)\n            mstore(add(f, 0x240), x)\n            mstore(add(f, 0x260), y)\n            mstore(add(f, 0x280), GAMMA_NEG_X_1)\n            mstore(add(f, 0x2a0), GAMMA_NEG_X_0)\n            mstore(add(f, 0x2c0), GAMMA_NEG_Y_1)\n            mstore(add(f, 0x2e0), GAMMA_NEG_Y_0)\n\n            // Check pairing equation.\n            success := staticcall(gas(), PRECOMPILE_VERIFY, f, 0x300, f, 0x20)\n            // Also check returned value (both are either 1 or 0).\n            success := and(success, mload(f))\n        }\n        if (!success) {\n            // Either proof or verification key invalid.\n            // We assume the contract is correctly generated, so the verification key is valid.\n            revert ProofInvalid();\n        }\n    }\n}\n",
  "sourcePath": "C:\\Users\\egna9\\.City_Master\\dessertation\\Project\\.Truffle\\contracts\\contract.sol",
  "compiler": {
    "name": "solc",
    "version": "0.8.4+commit.c7e474f2.Emscripten.clang"
  },
  "schemaVersion": "3.4.16",
  "updatedAt": "2024-09-19T08:19:18.991Z",
  "devdoc": {
    "author": "Remco Bloemen",
    "errors": {
      "ProofInvalid()": [
        {
          "details": "This can mean that provided Groth16 proof points are not on their curves, that pairing equation fails, or that the proof is not for the provided public input."
        }
      ],
      "PublicInputNotInField()": [
        {
          "details": "Public input elements are not automatically reduced, as this is can be a dangerous source of bugs."
        }
      ]
    },
    "kind": "dev",
    "methods": {
      "compressProof(uint256[8])": {
        "params": {
          "proof": "The uncompressed Groth16 proof. Elements are in the same order as for verifyProof. I.e. Groth16 points (A, B, C) encoded as in EIP-197."
        },
        "returns": {
          "compressed": "The compressed proof. Elements are in the same order as for verifyCompressedProof. I.e. points (A, B, C) in compressed format."
        }
      },
      "verifyCompressedProof(uint256[4],uint256[6])": {
        "params": {
          "compressedProof": "the points (A, B, C) in compressed format matching the output of compressProof.",
          "input": "the public input field elements in the scalar field Fr. Elements must be reduced."
        }
      },
      "verifyProof(uint256[8],uint256[6])": {
        "params": {
          "input": "the public input field elements in the scalar field Fr. Elements must be reduced.",
          "proof": "the points (A, B, C) in EIP-197 format matching the output of compressProof."
        }
      }
    },
    "title": "Groth16 verifier template.",
    "version": 1
  },
  "userdoc": {
    "errors": {
      "ProofInvalid()": [
        {
          "notice": "The proof is invalid."
        }
      ],
      "PublicInputNotInField()": [
        {
          "notice": "Some of the provided public input values are larger than the field modulus."
        }
      ]
    },
    "kind": "user",
    "methods": {
      "compressProof(uint256[8])": {
        "notice": "Compress a proof.Will revert with InvalidProof if the curve points are invalid, but does not verify the proof itself."
      },
      "verifyCompressedProof(uint256[4],uint256[6])": {
        "notice": "Verify a Groth16 proof with compressed points.Reverts with InvalidProof if the proof is invalid or with PublicInputNotInField the public input is not reduced.There is no return value. If the function does not revert, the proof was successfully verified."
      },
      "verifyProof(uint256[8],uint256[6])": {
        "notice": "Verify an uncompressed Groth16 proof.Reverts with InvalidProof if the proof is invalid or with PublicInputNotInField the public input is not reduced.There is no return value. If the function does not revert, the proof was successfully verified."
      }
    },
    "notice": "Supports verifying Groth16 proofs. Proofs can be in uncompressed (256 bytes) and compressed (128 bytes) format. A view function is provided to compress proofs.See <https://2.com/23/bn254-compression> for further explanation.",
    "version": 1
  }
}